:100000000C9434000C9451000C9451000C94510049
:100010000C9451000C9451000C9451000C9451001C
:100020000C9451000C9451000C9451000C9451000C
:100030000C9451000C9451000C94A4000C945100A9
:100040000C9451000C9451000C9451000C945100EC
:100050000C9451000C9451000C9451000C945100DC
:100060000C9451000C94510011241FBECFEFD8E026
:10007000DEBFCDBF11E0A0E0B1E0E0E2F2E002C0FF
:1000800005900D92AC30B107D9F721E0ACE0B1E0BA
:1000900001C01D92A031B207E1F70E9453000C94F9
:1000A0000E010C9400008FEF84B98AB18F608AB979
:1000B0008BB18F608BB984B5826084BD85B5856056
:1000C00085BD86E287BD80916E00826080936E0060
:1000D000789440E0C0E1D7E2E8EEF3E024E630E0D7
:1000E00004E61AE0842F90E00196BE010E94E6002B
:1000F000482F10920C019927BF010E94E600B90118
:100100000E94E60060930D01842F602F0E94DA00A8
:10011000892F612F0E94DA0080930E01842F0E94A4
:10012000DA0090930F015FEF87E893E15150804030
:100130009040E1F700C00000D5CFE82FF0E0EF5F7E
:10014000FE4F808185B908951F920F920FB60F92CE
:1001500011248F93EF93FF938091000180958BB9C9
:1001600080910001813019F4E0910C010EC08230C1
:1001700019F4E0910D0109C0843019F4E0910E01E9
:1001800004C0883039F4E0910F01F0E0EF5FFE4FDA
:10019000808185B980910001880F893008F081E065
:1001A00080930001FF91EF918F910F900FBE0F9000
:1001B0001F901895991B79E004C0991F961708F0B5
:1001C000961B881F7A95C9F78095089597FB072E8F
:1001D00016F4009407D077FD09D00E94FA0007FCBE
:1001E00005D03EF4909581959F4F08957095619547
:1001F0007F4F0895AA1BBB1B51E107C0AA1FBB1F5D
:10020000A617B70710F0A61BB70B881F991F5A95A2
:10021000A9F780959095BC01CD010895F894FFCF82
:0C02200001C0F9A4B0999282D88090002F
:00000001FF
