:100000000C9434000C9449000C9449000C94490061
:100010000C9449000C9449000C9449000C9449003C
:100020000C9449000C9449000C9449000C9449002C
:100030000C9449000C9449000C9449000C9449001C
:100040000C9449000C9449000C9449000C9449000C
:100050000C9449000C9449000C9449000C944900FC
:100060000C9449000C94490011241FBECFEFD8E036
:10007000DEBFCDBF11E0A0E0B1E0EAE2F1E002C0F6
:1000800005900D92AA30B107D9F70E944B000C944D
:1000900093000C9400008FEF84B980E02AE030E0F8
:1000A00090E0FC01E050FF4F408145B90196B90155
:1000B0000E946B004FEF51EE94E041505040904051
:1000C000E1F700C00000ECCFE82FF0E0E050FF4F78
:1000D000808185B9089597FB072E16F4009407D008
:1000E00077FD09D00E947F0007FC05D03EF4909573
:1000F00081959F4F0895709561957F4F0895AA1B34
:10010000BB1B51E107C0AA1FBB1FA617B70710F002
:10011000A61BB70B881F991F5A95A9F78095909534
:0A012000BC01CD010895F894FFCF53
:0A012A00C0F9A4B0999282D8809029
:00000001FF
