:100000000C9434000C9451000C9451000C94510049
:100010000C9451000C9451000C9451000C9451001C
:100020000C9451000C9451000C9451000C9451000C
:100030000C9451000C9451000C94B9000C94510094
:100040000C9451000C9451000C9451000C945100EC
:100050000C9451000C9451000C9451000C945100DC
:100060000C9451000C94510011241FBECFEFD8E026
:10007000DEBFCDBF11E0A0E0B1E0EAE0F2E002C0F7
:1000800005900D92AC30B107D9F721E0ACE0B1E0BA
:1000900001C01D92A031B207E1F70E9453000C94F9
:1000A00003010C9400008FEF84B98AB18F608AB984
:1000B0008BB18F608BB984B5826084BD85B5856056
:1000C00085BD86E287BD80916E00826080936E0060
:1000D000789441E020E030E000E117E288EEE82E7D
:1000E00083E0F82EC4E6D0E0EAE0F0E02F3057E2FB
:1000F000350769F02115310511F0413041F4C9018E
:100100000196B8010E94EF009C0141E007C0C901BF
:100110000197B8010E94EF009C0140E0C901B701BE
:100120000E94EF0060930C01BE010E94EF006093FB
:100130000D01C901BE010E94EF00BF010E94EF0046
:1001400060930E01C901BF010E94EF0080930F016F
:100150008FE396E951E0815090405040E1F700C0B4
:100160000000C4CFE82FF0E0EF5FFE4F808185B93B
:1001700008951F920F920FB60F9211248F93EF9351
:10018000FF938091000180958BB9809100018130AF
:1001900019F4E0910C010EC0823019F4E0910D01C8
:1001A00009C0843019F4E0910E0104C0883039F49C
:1001B000E0910F01F0E0EF5FFE4F808185B9809103
:1001C0000001880F893008F081E080930001FF91E1
:1001D000EF918F910F900FBE0F901F901895AA1B53
:1001E000BB1B51E107C0AA1FBB1FA617B70710F022
:1001F000A61BB70B881F991F5A95A9F78095909554
:0A020000BC01CD010895F894FFCF72
:0C020A0001C0F9A4B0999282D880900045
:00000001FF
